{
  "contractName": "EncryptionKeys",
  "abi": [
    {
      "constant": true,
      "inputs": [],
      "name": "owner",
      "outputs": [
        {
          "name": "",
          "type": "address"
        }
      ],
      "payable": false,
      "stateMutability": "view",
      "type": "function"
    },
    {
      "inputs": [
        {
          "name": "_publicKey",
          "type": "string"
        },
        {
          "name": "_privateKey",
          "type": "string"
        }
      ],
      "payable": false,
      "stateMutability": "nonpayable",
      "type": "constructor"
    },
    {
      "anonymous": false,
      "inputs": [
        {
          "indexed": false,
          "name": "key",
          "type": "string"
        }
      ],
      "name": "publicKeyRetrieved",
      "type": "event"
    },
    {
      "anonymous": false,
      "inputs": [
        {
          "indexed": false,
          "name": "key",
          "type": "string"
        }
      ],
      "name": "privateKeyRetrieved",
      "type": "event"
    },
    {
      "anonymous": false,
      "inputs": [
        {
          "indexed": false,
          "name": "inboxArray",
          "type": "string[]"
        }
      ],
      "name": "getInbox",
      "type": "event"
    },
    {
      "anonymous": false,
      "inputs": [
        {
          "indexed": false,
          "name": "nodeHash",
          "type": "address"
        }
      ],
      "name": "notAuthorized",
      "type": "event"
    },
    {
      "constant": false,
      "inputs": [],
      "name": "getPublicKey",
      "outputs": [],
      "payable": false,
      "stateMutability": "nonpayable",
      "type": "function"
    },
    {
      "constant": false,
      "inputs": [],
      "name": "getPrivateKey",
      "outputs": [],
      "payable": false,
      "stateMutability": "nonpayable",
      "type": "function"
    },
    {
      "constant": false,
      "inputs": [
        {
          "name": "ipfsHash",
          "type": "string"
        }
      ],
      "name": "addToInbox",
      "outputs": [],
      "payable": false,
      "stateMutability": "nonpayable",
      "type": "function"
    },
    {
      "constant": false,
      "inputs": [],
      "name": "readInbox",
      "outputs": [],
      "payable": false,
      "stateMutability": "nonpayable",
      "type": "function"
    }
  ],
  "bytecode": "0x60806040523480156200001157600080fd5b5060405162000a1f38038062000a1f8339810180604052620000379190810190620001bd565b81600290805190602001906200004f929190620000b2565b50806003908051906020019062000068929190620000b2565b5033600160006101000a81548173ffffffffffffffffffffffffffffffffffffffff021916908373ffffffffffffffffffffffffffffffffffffffff1602179055505050620002c1565b828054600181600116156101000203166002900490600052602060002090601f016020900481019282601f10620000f557805160ff191683800117855562000126565b8280016001018555821562000126579182015b828111156200012557825182559160200191906001019062000108565b5b50905062000135919062000139565b5090565b6200015e91905b808211156200015a57600081600090555060010162000140565b5090565b90565b600082601f8301126200017357600080fd5b81516200018a62000184826200025e565b62000230565b91508082526020830160208301858383011115620001a757600080fd5b620001b48382846200028b565b50505092915050565b60008060408385031215620001d157600080fd5b600083015167ffffffffffffffff811115620001ec57600080fd5b620001fa8582860162000161565b925050602083015167ffffffffffffffff8111156200021857600080fd5b620002268582860162000161565b9150509250929050565b6000604051905081810181811067ffffffffffffffff821117156200025457600080fd5b8060405250919050565b600067ffffffffffffffff8211156200027657600080fd5b601f19601f8301169050602081019050919050565b60005b83811015620002ab5780820151818401526020810190506200028e565b83811115620002bb576000848401525b50505050565b61074e80620002d16000396000f3fe608060405234801561001057600080fd5b50600436106100575760003560e01c80632e3344521461005c57806361f0b25f14610066578063724c0c9e146100705780638da5cb5b1461007a578063f0d62fad14610098575b600080fd5b6100646100b4565b005b61006e6100ee565b005b6100786101bb565b005b6100826101f5565b60405161008f919061055b565b60405180910390f35b6100b260048036036100ad9190810190610356565b61021b565b005b7f9ef7a316a8936b6ced635b4e03c0e449091528b82956eb61bed11c74027b7cb560026040516100e491906105b3565b60405180910390a1565b3373ffffffffffffffffffffffffffffffffffffffff16600160009054906101000a900473ffffffffffffffffffffffffffffffffffffffff1673ffffffffffffffffffffffffffffffffffffffff161415610181577fed37b7ef047c597254ab115cd0d400209290e2af8fa2ec4830e394e9383e5ca2600360405161017491906105b3565b60405180910390a16101b9565b7f3e93efda8ef94bc9822a328ee48b0e2490c0599d524d49fb8171e172c30e3b5d336040516101b09190610576565b60405180910390a15b565b7fe6de9156e19084a0411456d12e6d0e0dacf577e4855e0f250923aff10a63655860006040516101eb9190610591565b60405180910390a1565b600160009054906101000a900473ffffffffffffffffffffffffffffffffffffffff1681565b600081908060018154018082558091505090600182039060005260206000200160009091929091909150908051906020019061025892919061025d565b505050565b828054600181600116156101000203166002900490600052602060002090601f016020900481019282601f1061029e57805160ff19168380011785556102cc565b828001600101855582156102cc579182015b828111156102cb5782518255916020019190600101906102b0565b5b5090506102d991906102dd565b5090565b6102ff91905b808211156102fb5760008160009055506001016102e3565b5090565b90565b600082601f83011261031357600080fd5b813561032661032182610602565b6105d5565b9150808252602083016020830185838301111561034257600080fd5b61034d838284610705565b50505092915050565b60006020828403121561036857600080fd5b600082013567ffffffffffffffff81111561038257600080fd5b61038e84828501610302565b91505092915050565b60006103a3838361043d565b905092915050565b6103b4816106cf565b82525050565b6103c38161069d565b82525050565b60006103d482610652565b6103de818561066a565b9350836020820285016103f08561062e565b8060005b8581101561042b5784840389528161040c8582610397565b94506104178361065d565b925060208a019950506001810190506103f4565b50829750879550505050505092915050565b60008154600181166000811461045a5760018114610480576104c4565b607f600283041661046b818761067b565b955060ff1983168652602086019350506104c4565b6002820461048e818761067b565b955061049985610640565b60005b828110156104bb5781548189015260018201915060208101905061049c565b80880195505050505b505092915050565b6000815460018116600081146104e9576001811461050f57610553565b607f60028304166104fa818761068c565b955060ff198316865260208601935050610553565b6002820461051d818761068c565b955061052885610640565b60005b8281101561054a5781548189015260018201915060208101905061052b565b80880195505050505b505092915050565b600060208201905061057060008301846103ba565b92915050565b600060208201905061058b60008301846103ab565b92915050565b600060208201905081810360008301526105ab81846103c9565b905092915050565b600060208201905081810360008301526105cd81846104cc565b905092915050565b6000604051905081810181811067ffffffffffffffff821117156105f857600080fd5b8060405250919050565b600067ffffffffffffffff82111561061957600080fd5b601f19601f8301169050602081019050919050565b60008160005260206000209050919050565b60008160005260206000209050919050565b600081549050919050565b6000600182019050919050565b600082825260208201905092915050565b600082825260208201905092915050565b600082825260208201905092915050565b60006106a8826106af565b9050919050565b600073ffffffffffffffffffffffffffffffffffffffff82169050919050565b60006106da826106e1565b9050919050565b60006106ec826106f3565b9050919050565b60006106fe826106af565b9050919050565b8281833760008383015250505056fea265627a7a72305820e7ee158547656a47b0942ce47f79bab083b0c1f2c27931ba8a82c9a72ced3a596c6578706572696d656e74616cf50037",
  "source": " pragma solidity ^0.5.8;\n pragma experimental ABIEncoderV2;\n\ncontract EncryptionKeys {\n    // Structures\n\n    string[] ipfsInbox;\n\n        // variables\n    address public owner;\n    string private publicKey;\n    string private privateKey;\n\n    // events\n    event publicKeyRetrieved(string key);\n    event privateKeyRetrieved(string key);\n    event getInbox(string[] inboxArray);\n    event notAuthorized(address nodeHash);\n\n    // functions\n    constructor (string memory _publicKey, string memory _privateKey) public {\n        publicKey = _publicKey;\n        privateKey = _privateKey;\n        owner = msg.sender;\n    }\n\n    function getPublicKey() public {\n        emit publicKeyRetrieved(publicKey);\n    }\n\n    function getPrivateKey() public {\n        if (owner == msg.sender) {\n            emit privateKeyRetrieved(privateKey);\n        } else {\n            emit notAuthorized(msg.sender);\n        }\n    }\n\n    function addToInbox(string memory ipfsHash) public {\n        ipfsInbox.push(ipfsHash);\n    }\n\n    function readInbox() public {\n        emit getInbox(ipfsInbox);\n    }\n\n}",
  "sourcePath": "/home/tony/work/ipfs-ethereum-demo/ipfs-ether-demo/contracts/EncryptionKeys.sol",
  "compiler": {
    "name": "solc",
    "version": "0.5.8+commit.23d335f2.Emscripten.clang"
  },
  "schemaVersion": "3.0.17",
  "updatedAt": "2019-12-11T03:50:36.347Z",
  "devdoc": {
    "methods": {}
  },
  "userdoc": {
    "methods": {}
  }
}