{
  "contractName": "EncryptionKeys",
  "abi": [
    {
      "constant": true,
      "inputs": [],
      "name": "owner",
      "outputs": [
        {
          "name": "",
          "type": "address"
        }
      ],
      "payable": false,
      "stateMutability": "view",
      "type": "function"
    },
    {
      "inputs": [
        {
          "name": "_publicKey",
          "type": "string"
        },
        {
          "name": "_privateKey",
          "type": "string"
        }
      ],
      "payable": false,
      "stateMutability": "nonpayable",
      "type": "constructor"
    },
    {
      "anonymous": false,
      "inputs": [
        {
          "indexed": false,
          "name": "key",
          "type": "string"
        }
      ],
      "name": "publicKeyRetrieved",
      "type": "event"
    },
    {
      "anonymous": false,
      "inputs": [
        {
          "indexed": false,
          "name": "key",
          "type": "string"
        }
      ],
      "name": "privateKeyRetrieved",
      "type": "event"
    },
    {
      "anonymous": false,
      "inputs": [
        {
          "indexed": false,
          "name": "nodeHash",
          "type": "address"
        }
      ],
      "name": "notAuthorized",
      "type": "event"
    },
    {
      "constant": false,
      "inputs": [],
      "name": "getPublicKey",
      "outputs": [],
      "payable": false,
      "stateMutability": "nonpayable",
      "type": "function"
    },
    {
      "constant": false,
      "inputs": [],
      "name": "getPrivateKey",
      "outputs": [],
      "payable": false,
      "stateMutability": "nonpayable",
      "type": "function"
    }
  ],
  "bytecode": "0x608060405234801561001057600080fd5b506040516105293803806105298339810180604052604081101561003357600080fd5b81019080805164010000000081111561004b57600080fd5b8281019050602081018481111561006157600080fd5b815185600182028301116401000000008211171561007e57600080fd5b5050929190602001805164010000000081111561009a57600080fd5b828101905060208101848111156100b057600080fd5b81518560018202830111640100000000821117156100cd57600080fd5b505092919050505081600190805190602001906100eb92919061014a565b50806002908051906020019061010292919061014a565b50336000806101000a81548173ffffffffffffffffffffffffffffffffffffffff021916908373ffffffffffffffffffffffffffffffffffffffff16021790555050506101ef565b828054600181600116156101000203166002900490600052602060002090601f016020900481019282601f1061018b57805160ff19168380011785556101b9565b828001600101855582156101b9579182015b828111156101b857825182559160200191906001019061019d565b5b5090506101c691906101ca565b5090565b6101ec91905b808211156101e85760008160009055506001016101d0565b5090565b90565b61032b806101fe6000396000f3fe608060405234801561001057600080fd5b50600436106100415760003560e01c80632e3344521461004657806361f0b25f146100505780638da5cb5b1461005a575b600080fd5b61004e6100a4565b005b610058610160565b005b6100626102da565b604051808273ffffffffffffffffffffffffffffffffffffffff1673ffffffffffffffffffffffffffffffffffffffff16815260200191505060405180910390f35b7f9ef7a316a8936b6ced635b4e03c0e449091528b82956eb61bed11c74027b7cb5600160405180806020018281038252838181546001816001161561010002031660029004815260200191508054600181600116156101000203166002900480156101505780601f1061012557610100808354040283529160200191610150565b820191906000526020600020905b81548152906001019060200180831161013357829003601f168201915b50509250505060405180910390a1565b3373ffffffffffffffffffffffffffffffffffffffff166000809054906101000a900473ffffffffffffffffffffffffffffffffffffffff1673ffffffffffffffffffffffffffffffffffffffff161415610274577fed37b7ef047c597254ab115cd0d400209290e2af8fa2ec4830e394e9383e5ca2600260405180806020018281038252838181546001816001161561010002031660029004815260200191508054600181600116156101000203166002900480156102615780601f1061023657610100808354040283529160200191610261565b820191906000526020600020905b81548152906001019060200180831161024457829003601f168201915b50509250505060405180910390a16102d8565b7f3e93efda8ef94bc9822a328ee48b0e2490c0599d524d49fb8171e172c30e3b5d33604051808273ffffffffffffffffffffffffffffffffffffffff1673ffffffffffffffffffffffffffffffffffffffff16815260200191505060405180910390a15b565b6000809054906101000a900473ffffffffffffffffffffffffffffffffffffffff168156fea165627a7a7230582037836ef335055456d45c89cf57bcda7e3af0854b46ae026364ec8b3aadf859010029",
  "source": " pragma solidity ^0.5.8;\ncontract EncryptionKeys {\n    // variables\n    address public owner;\n    string private publicKey;\n    string private privateKey;\n\n    // Structures\n\n    // events\n    event publicKeyRetrieved(string key);\n    event privateKeyRetrieved(string key);\n    event notAuthorized(address nodeHash);\n\n    // functions\n    constructor (string memory _publicKey, string memory _privateKey) public {\n        publicKey = _publicKey;\n        privateKey = _privateKey;\n        owner = msg.sender;\n    }\n\n    function getPublicKey() public {\n        emit publicKeyRetrieved(publicKey);\n    }\n\n    function getPrivateKey() public {\n        if (owner == msg.sender) {\n            emit privateKeyRetrieved(privateKey);\n        } else {\n            emit notAuthorized(msg.sender);\n        }\n    }\n\n}",
  "sourcePath": "/home/tony/work/ipfs-ethereum-demo/ipfs-ether-demo/contracts/EncryptionKeys.sol",
  "compiler": {
    "name": "solc",
    "version": "0.5.8+commit.23d335f2.Emscripten.clang"
  },
  "schemaVersion": "3.0.17",
  "updatedAt": "2019-12-08T22:19:58.147Z",
  "devdoc": {
    "methods": {}
  },
  "userdoc": {
    "methods": {}
  }
}