{
  "contractName": "EncryptionKeys",
  "abi": [
    {
      "constant": true,
      "inputs": [],
      "name": "owner",
      "outputs": [
        {
          "name": "",
          "type": "address"
        }
      ],
      "payable": false,
      "stateMutability": "view",
      "type": "function"
    },
    {
      "inputs": [
        {
          "name": "_encryptionKey",
          "type": "string"
        },
        {
          "name": "_decryptionKey",
          "type": "string"
        }
      ],
      "payable": false,
      "stateMutability": "nonpayable",
      "type": "constructor"
    },
    {
      "anonymous": false,
      "inputs": [
        {
          "indexed": false,
          "name": "key",
          "type": "string"
        }
      ],
      "name": "encryptionRetrieved",
      "type": "event"
    },
    {
      "anonymous": false,
      "inputs": [
        {
          "indexed": false,
          "name": "key",
          "type": "string"
        }
      ],
      "name": "decryptionRetrieved",
      "type": "event"
    },
    {
      "anonymous": false,
      "inputs": [
        {
          "indexed": false,
          "name": "nodeHash",
          "type": "address"
        }
      ],
      "name": "notAuthorized",
      "type": "event"
    },
    {
      "constant": false,
      "inputs": [],
      "name": "getEncryptionKey",
      "outputs": [],
      "payable": false,
      "stateMutability": "nonpayable",
      "type": "function"
    },
    {
      "constant": false,
      "inputs": [],
      "name": "getDecryptionKey",
      "outputs": [],
      "payable": false,
      "stateMutability": "nonpayable",
      "type": "function"
    }
  ],
  "bytecode": "0x608060405234801561001057600080fd5b506040516105e73803806105e78339810180604052604081101561003357600080fd5b81019080805164010000000081111561004b57600080fd5b8281019050602081018481111561006157600080fd5b815185600182028301116401000000008211171561007e57600080fd5b5050929190602001805164010000000081111561009a57600080fd5b828101905060208101848111156100b057600080fd5b81518560018202830111640100000000821117156100cd57600080fd5b505092919050505081600190805190602001906100eb92919061014a565b50806002908051906020019061010292919061014a565b50336000806101000a81548173ffffffffffffffffffffffffffffffffffffffff021916908373ffffffffffffffffffffffffffffffffffffffff16021790555050506101ef565b828054600181600116156101000203166002900490600052602060002090601f016020900481019282601f1061018b57805160ff19168380011785556101b9565b828001600101855582156101b9579182015b828111156101b857825182559160200191906001019061019d565b5b5090506101c691906101ca565b5090565b6101ec91905b808211156101e85760008160009055506001016101d0565b5090565b90565b6103e9806101fe6000396000f3fe608060405234801561001057600080fd5b50600436106100415760003560e01c80631dc9eb80146100465780637d6ddcc1146100505780638da5cb5b1461005a575b600080fd5b61004e6100a4565b005b61005861021e565b005b610062610398565b604051808273ffffffffffffffffffffffffffffffffffffffff1673ffffffffffffffffffffffffffffffffffffffff16815260200191505060405180910390f35b3373ffffffffffffffffffffffffffffffffffffffff166000809054906101000a900473ffffffffffffffffffffffffffffffffffffffff1673ffffffffffffffffffffffffffffffffffffffff1614156101b8577f16683e1137eb79f9a2541720301a6202285b1c1d1bf8ad59e29efb0baf3b5259600160405180806020018281038252838181546001816001161561010002031660029004815260200191508054600181600116156101000203166002900480156101a55780601f1061017a576101008083540402835291602001916101a5565b820191906000526020600020905b81548152906001019060200180831161018857829003601f168201915b50509250505060405180910390a161021c565b7f3e93efda8ef94bc9822a328ee48b0e2490c0599d524d49fb8171e172c30e3b5d33604051808273ffffffffffffffffffffffffffffffffffffffff1673ffffffffffffffffffffffffffffffffffffffff16815260200191505060405180910390a15b565b3373ffffffffffffffffffffffffffffffffffffffff166000809054906101000a900473ffffffffffffffffffffffffffffffffffffffff1673ffffffffffffffffffffffffffffffffffffffff161415610332577faf015dde69a5a9d4afcac454c8acb10375bedee7d774d93e7b8358fbb9db248d6002604051808060200182810382528381815460018160011615610100020316600290048152602001915080546001816001161561010002031660029004801561031f5780601f106102f45761010080835404028352916020019161031f565b820191906000526020600020905b81548152906001019060200180831161030257829003601f168201915b50509250505060405180910390a1610396565b7f3e93efda8ef94bc9822a328ee48b0e2490c0599d524d49fb8171e172c30e3b5d33604051808273ffffffffffffffffffffffffffffffffffffffff1673ffffffffffffffffffffffffffffffffffffffff16815260200191505060405180910390a15b565b6000809054906101000a900473ffffffffffffffffffffffffffffffffffffffff168156fea165627a7a72305820502886286bd710ba3b66d273ead7eaf91cf566c6fd7e0b3f970845dcba0ff5f20029",
  "source": " pragma solidity ^0.5.8;\ncontract EncryptionKeys {\n    // variables\n    address public owner;\n    string private encryptionKey;\n    string private decryptionKey;\n\n    // Structures\n\n    // events\n    event encryptionRetrieved(string key);\n    event decryptionRetrieved(string key);\n    event notAuthorized(address nodeHash);\n\n    // functions\n    constructor (string memory _encryptionKey, string memory _decryptionKey) public {\n        encryptionKey = _encryptionKey;\n        decryptionKey = _decryptionKey;\n        owner = msg.sender;\n    }\n\n    function getEncryptionKey() public {\n        if (owner == msg.sender) {\n            emit encryptionRetrieved(encryptionKey);\n        } else {\n            emit notAuthorized(msg.sender);\n        }\n    }\n\n    function getDecryptionKey() public {\n        if (owner == msg.sender) {\n            emit decryptionRetrieved(decryptionKey);\n        } else {\n            emit notAuthorized(msg.sender);\n        }\n    }\n\n}",
  "sourcePath": "/home/tony/work/ipfs-ethereum-demo/ipfs-ether-demo/contracts/EncryptionKeys.sol",
  "compiler": {
    "name": "solc",
    "version": "0.5.8+commit.23d335f2.Emscripten.clang"
  },
  "schemaVersion": "3.0.17",
  "updatedAt": "2019-11-24T16:03:12.734Z",
  "networkType": "ethereum",
  "devdoc": {
    "methods": {}
  },
  "userdoc": {
    "methods": {}
  }
}