{
  "contractName": "IPFSInbox",
  "abi": [
    {
      "inputs": [],
      "payable": false,
      "stateMutability": "nonpayable",
      "type": "constructor"
    },
    {
      "anonymous": false,
      "inputs": [
        {
          "indexed": false,
          "name": "_ipfsHash",
          "type": "string"
        },
        {
          "indexed": false,
          "name": "_address",
          "type": "address"
        }
      ],
      "name": "ipfsSent",
      "type": "event"
    },
    {
      "anonymous": false,
      "inputs": [
        {
          "indexed": false,
          "name": "response",
          "type": "string"
        }
      ],
      "name": "inboxResponse",
      "type": "event"
    },
    {
      "constant": false,
      "inputs": [
        {
          "name": "_address",
          "type": "address"
        },
        {
          "name": "_ipfsHash",
          "type": "string"
        }
      ],
      "name": "sendIPFS",
      "outputs": [],
      "payable": false,
      "stateMutability": "nonpayable",
      "type": "function"
    },
    {
      "constant": false,
      "inputs": [],
      "name": "checkInbox",
      "outputs": [],
      "payable": false,
      "stateMutability": "nonpayable",
      "type": "function"
    }
  ],
  "bytecode": "0x608060405234801561001057600080fd5b50600180819055506106d5806100276000396000f3fe608060405234801561001057600080fd5b50600436106100365760003560e01c80635c23d56f1461003b5780636bfc70e214610045575b600080fd5b610043610120565b005b61011e6004803603604081101561005b57600080fd5b81019080803573ffffffffffffffffffffffffffffffffffffffff1690602001909291908035906020019064010000000081111561009857600080fd5b8201836020820111156100aa57600080fd5b803590602001918460018302840111640100000000831117156100cc57600080fd5b91908080601f016020809104026020016040519081016040528093929190818152602001838380828437600081840152601f19601f820116905080830192505050505050509192919290505050610374565b005b60606000803373ffffffffffffffffffffffffffffffffffffffff1673ffffffffffffffffffffffffffffffffffffffff1681526020019081526020016000208054600181600116156101000203166002900480601f0160208091040260200160405190810160405280929190818152602001828054600181600116156101000203166002900480156101f45780601f106101c9576101008083540402835291602001916101f4565b820191906000526020600020905b8154815290600101906020018083116101d757829003601f168201915b50505050509050600081511415610272577f2974ec83b4de9f76155d0c3e88bd3c0645c56c1795807f37d3f9e95caafeee5760405180806020018281038252600b8152602001807f456d70747920496e626f7800000000000000000000000000000000000000000081525060200191505060405180910390a1610371565b604051806020016040528060008152506000803373ffffffffffffffffffffffffffffffffffffffff1673ffffffffffffffffffffffffffffffffffffffff16815260200190815260200160002090805190602001906102d39291906105d3565b507f2974ec83b4de9f76155d0c3e88bd3c0645c56c1795807f37d3f9e95caafeee57816040518080602001828103825283818151815260200191508051906020019080838360005b8381101561033657808201518184015260208101905061031b565b50505050905090810190601f1680156103635780820380516001836020036101000a031916815260200191505b509250505060405180910390a15b50565b6000808373ffffffffffffffffffffffffffffffffffffffff1673ffffffffffffffffffffffffffffffffffffffff1681526020019081526020016000208054600181600116156101000203166002900480601f0160208091040260200160405190810160405280929190818152602001828054600181600116156101000203166002900480156104465780601f1061041b57610100808354040283529160200191610446565b820191906000526020600020905b81548152906001019060200180831161042957829003601f168201915b5050505050606081905060008151146104aa576040517f08c379a00000000000000000000000000000000000000000000000000000000081526004018080602001828103825260318152602001806106796031913960400191505060405180910390fd5b826000808673ffffffffffffffffffffffffffffffffffffffff1673ffffffffffffffffffffffffffffffffffffffff16815260200190815260200160002090805190602001906104fc9291906105d3565b507fd3896131bca4353bcda578f36768163e2ca77cefb2988be6c4e81939ca298ac0838560405180806020018373ffffffffffffffffffffffffffffffffffffffff1673ffffffffffffffffffffffffffffffffffffffff168152602001828103825284818151815260200191508051906020019080838360005b83811015610592578082015181840152602081019050610577565b50505050905090810190601f1680156105bf5780820380516001836020036101000a031916815260200191505b50935050505060405180910390a150505050565b828054600181600116156101000203166002900490600052602060002090601f016020900481019282601f1061061457805160ff1916838001178555610642565b82800160010185558215610642579182015b82811115610641578251825591602001919060010190610626565b5b50905061064f9190610653565b5090565b61067591905b80821115610671576000816000905550600101610659565b5090565b9056fe52455155495245204552524f52204f48204e4f21205448494e4b204f46204120424554544552204d4553534147452e2e2ea165627a7a72305820fbd635ffcc08a417c0e7a0028394914988cb6a700c8990caf2dd72f0740e409d0029",
  "source": "pragma solidity ^0.5.8;\r\ncontract IPFSInbox {\r\n    // Structures\r\n    mapping (address => string) ipfsInbox;\r\n    // Events\r\n    event ipfsSent(string _ipfsHash, address _address);\r\n    event inboxResponse(string response);\r\n\r\n    int test;\r\n\r\n    // Modifiers\r\n    modifier notFull (string memory _string) {\r\n        bytes memory stringTest = bytes(_string); require (stringTest.length == 0, \"REQUIRE ERROR OH NO! THINK OF A BETTER MESSAGE...\");\r\n        _;\r\n    }\r\n    // An empty constructor that creates an instance of the contract\r\n    constructor() public {\r\n        test = 1;\r\n    }\r\n\r\n    // A function that takes in the receiver's address and the\r\n    // IPFS address. Places the IPFS address in the receiver's\r\n    // inbox.\r\n    function sendIPFS(address  _address, string memory _ipfsHash)\r\n        public\r\n        notFull(ipfsInbox[_address])\r\n    {\r\n       ipfsInbox[_address] = _ipfsHash;\r\n       emit ipfsSent(_ipfsHash, _address);\r\n    }\r\n\r\n    // A function that checks your inbox and empties it afterwards.\r\n    // Returns an address if there is one, or \"Empty Inbox\"\r\n    function checkInbox()\r\n        public\r\n    {\r\n        string memory ipfs_hash = ipfsInbox[msg.sender];\r\n        if(bytes(ipfs_hash).length == 0) {\r\n            emit inboxResponse(\"Empty Inbox\");\r\n        } else {\r\n            ipfsInbox[msg.sender] = \"\";\r\n            emit inboxResponse(ipfs_hash);\r\n        }\r\n    }\r\n}",
  "sourcePath": "D:/work/ipfs-ethereum-tutorial/contracts/IPFSInbox.sol",
  "compiler": {
    "name": "solc",
    "version": "0.5.8+commit.23d335f2.Emscripten.clang"
  },
  "schemaVersion": "3.0.16",
  "updatedAt": "2019-10-25T02:19:01.086Z",
  "devdoc": {
    "methods": {}
  },
  "userdoc": {
    "methods": {}
  }
}